:04000000A2EF08F073
:10100000003F065B4F666D7D077F6F00000E056E2B
:10101000050E056401D012000450010D010EF324E9
:10102000F66E100EF420F76E0800F5CF8CFF8A8064
:101030001A0E066EF80EE82EFED7062EFCD700D04C
:101040008A900350010D010EF324F66E100EF42069
:10105000F76E0800F5CF8CFF8A821A0E066EF80E26
:10106000E82EFED7062EFCD700D08A920250010D42
:10107000010EF324F66E100EF420F76E0800F5CF83
:101080008CFF8A841A0E066EF80EE82EFED7062E06
:10109000FCD700D08A940150010D010EF324F66EA6
:1010A000100EF420F76E0800F5CF8CFF8A861A0E1A
:1010B000066EF80EE82EFED7062EFCD700D08A96D4
:1010C000052AA6D783EC08F006EC08F0042A0A0EDD
:1010D0000418D8A4F9D7000E046E032A0A0E0318C8
:1010E000D8A4F2D7000E036E022A0A0E0218D8A462
:1010F000EBD7000E026E012A0A0E0118D8A4E4D71D
:10110000000E016EE1D7D3508F0B6009D36E9B8C1C
:10111000C168000E806E000E816E000E826E000EA1
:10112000836E000E926E000E936E000E946E000E93
:10113000956E000E046E000E036E000E026E000E21
:10114000016E1200056A046A036A026A016A000EEF
:0C115000F86E100EF76E000162EF08F060
:020000040020DA
:08000000FFFFFFFFFFFFFFFF00
:020000040030CA
:0E000000FFC8181EFF8381FF0FC00FE00F40E6
:00000001FF
