:0400000051EF00F0CC
:10000800FACF01F0FBCF02F0E9CF03F0EACF04F01A
:10001800E1CF05F0E2CF06F0D9CF07F0DACF08F04C
:10002800F3CF09F0F4CF0AF0F6CF0BF0F7CF0CF0CE
:10003800F8CF0DF0F5CF0EF0F2A412D0434A442ABF
:10004800E80E435C030E4458D8A005D0827C000E0D
:10005800446E000E436EF80ED76E300ED66EF294D4
:100068000EC0F5FF0DC0F8FF0CC0F7FF0BC0F6FF80
:100078000AC0F4FF09C0F3FF08C0DAFF07C0D9FFC0
:1000880006C0E2FF05C0E1FF04C0EAFF03C0E9FFC4
:0E00980002C0FBFF01C0FAFF110093EF05F05C
:1006000000204C434420313678322026205843388D
:1006100020000000E8CF12F012A012D04150070BCA
:100620000F6E010E106E0F2A02D0D89010360F2ECA
:10063000FCD73EC0D9FF3FC0DAFF1050DF1214D004
:100640004150070B0F6E010E106E0F2A02D0D8908A
:1006500010360F2EFCD71050FF0A116E3EC0D9FF86
:100660003FC0DAFF1150DF1612A214D04130E83239
:10067000E832070B0F6E010E106E0F2A02D0D890D1
:1006800010360F2EFCD73EC0D9FF3FC0DAFF105006
:10069000DF1216D04130E832E832070B0F6E010E40
:1006A000106E0F2A02D0D89010360F2EFCD71050A3
:1006B000FF0A116E3EC0D9FF3FC0DAFF1150DF16AE
:1006C00012A412D04250070B0F6E010E106E0F2AAB
:1006D00002D0D89010360F2EFCD73EC0D9FF3FC0B5
:1006E000DAFF1050DF1214D04250070B0F6E010ECC
:1006F000106E0F2A02D0D89010360F2EFCD7105053
:10070000FF0A116E3EC0D9FF3FC0DAFF1150DF165D
:1007100012A614D04230E832E832070B0F6E010EF9
:10072000106E0F2A02D0D89010360F2EFCD73EC084
:10073000D9FF3FC0DAFF1050DF1212004230E8321A
:10074000E832070B0F6E010E106E0F2A02D0D89000
:1007500010360F2EFCD71050FF0A116E3EC0D9FF85
:100760003FC0DAFF1150DF161200FBEC05F020EE5F
:1007700039F010EE20F0050EDECFE6FFE82EFCD7B4
:1007800020EE20F010EE17F0050EDECFE6FFE82E8B
:10079000FCD7D1EC04F0000E48EC05F0010E48EC5B
:1007A00005F0000E48EC05F0010E48EC05F0080ECF
:1007B00048EC05F0000E48EC05F0060E186E010E30
:1007C000176EBCEC05F00C0E48EC05F0000E48EC82
:1007D00005F01F6E000E256E1F5012D02550010D22
:1007E000280EF324D96E000EF420DA6EDF505AEC96
:1007F00004F0010E106E2C0E0F6EE5EC05F0252AAC
:100800000E0E2564EBD7030E106EE80E0F6EE5ECAE
:1008100005F0000E48EC05F0010E48EC05F0080E5E
:1008200048EC05F0000E48EC05F01F6E000E266E39
:100830001F5014D02650010D0001600EF324D96E14
:100840000001000EF420DA6EDF505AEC04F0010EC5
:10085000106E2C0E0F6EE5EC05F0262A0F0E2664A6
:10086000E9D70C0E48EC05F0000E48EC05F01F6EC1
:10087000100E276E1F5014D02750010D0001600E7E
:10088000F324D96E0001000EF420DA6EDF505AEC2A
:1008900004F0010E106E2C0E0F6EE5EC05F0272A09
:1008A0001F0E2764E9D7030E106EE80E0F6EE5ECFD
:1008B00005F077D7E8CF16F04050070B136E010E06
:1008C000146E132A02D0D8901436132EFCD73EC0D3
:1008D000D9FF3FC0DAFF1450DF1216380F0B0F0B91
:1008E0000AEC03F04030E832E832070B136E010ED9
:1008F000146E132A02D0D8901436132EFCD73EC0A3
:10090000D9FF3FC0DAFF1450DF12350EE82EFED7B4
:1009100000F04030E832E832070B136E010E146E1F
:10092000132A02D0D8901436132EFCD71450FF0A85
:10093000156E3EC0D9FF3FC0DAFF1550DF161650C6
:100940000F0B0AEC03F04030E832E832070B136E6D
:10095000010E146E132A02D0D8901436132EFCD731
:100960003EC0D9FF3FC0DAFF1450DF12350EE82E2B
:10097000FED700F04030E832E832070B136E010E6C
:10098000146E132A02D0D8901436132EFCD71450AC
:10099000FF0A156E3EC0D9FF3FC0DAFF1550DF16C3
:1009A000120020EE17F010EE3EF0050EDECFE6FF4F
:1009B000E82EFCD7800E1C6E0F0E1D6E1D503F18CA
:1009C00002E11C503E18D8A403D0000E926E1BD03A
:1009D000810E1C6E0F0E1D6E1D503F1802E11C5043
:1009E0003E18D8A403D0000E936E0DD0820E1C6E5C
:1009F0000F0E1D6E1D503F1802E11C503E18D8A46A
:100A00001200000E946E680E1C6EE40EE82EFED7E7
:100A10001C2EFCD700D0030E48EC05F01A0E1C6EFD
:100A2000F80EE82EFED71C2EFCD700D0030E48ECA3
:100A300005F0540E1C6E1C0EE82EFED71C2EFCD7A3
:100A400000D0030E48EC05F0020E48EC05F0020E53
:100A500048EC05F0080E48EC05F0000E48EC05F0F7
:100A6000060E48EC05F01C6E080E1E6E1C501E840F
:100A70001E380F0B0F0B48EC05F01E500F0B48EC07
:100A800005F0000E48EC05F0010E48EC05F01200F0
:100A9000E8CF16F04050070B136E010E146E132AA8
:100AA00002D0D8901436132EFCD71450FF0A156EBE
:100AB0003EC0D9FF3FC0DAFF1550DF1616500AECD2
:100AC00003F04030E832E832070B136E010E146E6B
:100AD000132A02D0D8901436132EFCD73EC0D9FF6B
:100AE0003FC0DAFF1450DF12150E136EC60EE82E4B
:100AF000FED7132EFCD700D04030E832E832070B87
:100B0000136E010E146E132A02D0D8901436132ED1
:100B1000FCD71450FF0A156E3EC0D9FF3FC0DAFF64
:100B20001550DF161200446A436A400EF66E0C0E32
:100B3000F76E000EF86E00EE60F010EE21F0090086
:100B4000F5CFEEFFE550E150FAE1610EF66E0C0EC6
:100B5000F76E000EF86E00EE28F010EE16F00900A9
:100B6000F5CFEEFFE550E150FAE1000EF86E060E0B
:100B7000F76E0001B5EF03F0000E1C6E000E1B6E49
:100B800012D017C019F018C01AF01B5019261C50AB
:100B90001A2219C0F6FF1AC0F7FF0800F5505AECE8
:100BA00004F01B4A1C2A17C019F018C01AF01B5079
:100BB00019261C501A2219C0F6FF1AC0F7FF0800A8
:100BC000F5500009D8B41200DCD7000E136E000EE9
:100BD000126E0AD0060E116E300EE82EFED7112EC0
:100BE000FCD700D0124A132A0F50125C1050135831
:100BF000D8B01200EFD7000E0F010F01386F000EB2
:100C00000F010F01396F000E0F010F013A6FD388EA
:100C1000D38AD38C949C0EEC06F01200D58ED59C12
:100C2000D59AD598D596D590D592D594F80ED76EFD
:100C3000300ED66EF294F28AF184D08EF28E1200CB
:100C4000687474703A2F2F6D726368756E636B757C
:100C500065652E626C6F6773706F742E636F6D2F96
:100C60000020204D724368756E636B7565652120A9
:080C70002000810F082C3E005A
:020000040020DA
:08000000FFFFFFFFFFFFFFFF00
:020000040030CA
:0E000000FF28193CFFB581FF0FC00FE00F4035
:00000001FF
