:0400000087EF0BF08B
:10100000002053656E736F722048432D5352303465
:1010100000204D724368756E636B75656521210014
:1010200046756572612064652072616E676F00634A
:031030006D000050
:10103400D8EC0BF020EE2FF010EE1BF0040EDBCFFB
:10104400E3FFE806FCE220EE1BF000EE09F0040EDC
:10105400DBCFEBFFE806FCE2F4EC09F0000EADECAC
:101064000AF0010EADEC0AF0080EADEC0AF0000E29
:10107400ADEC0AF0110E096E100E0A6E20EC0BF0A6
:101084000C0EADEC0AF0000EADEC0AF0010E096E88
:10109400100E0A6E20EC0BF0150E1A6E4B0E196E24
:1010A400BE0EE82EFED7192EFCD71A2EFAD700D082
:1010B400BEEC0BF001C025F002C026F0910E255CB9
:1010C400010E2658D8A02AD0000EADEC0AF0010E6D
:1010D400ADEC0AF0080EADEC0AF0000EADEC0AF02F
:1010E400020E096E100E0A6E20EC0BF00C0EADEC25
:1010F4000AF0000EADEC0AF0200E096E100E0A6E16
:1011040020EC0BF00B0E1A6E260E196E5E0EE82EF6
:10111400FED7192EFCD71A2EFAD7CAD7270E116E6E
:10112400000E126E25C013F026C014F0000E166EC9
:101134000A0E156E45EC0BF0000EADEC0AF0010E34
:10114400ADEC0AF0080EADEC0AF0000EADEC0AF0BE
:10115400020E096E100E0A6E20EC0BF00C0EADECB4
:101164000AF0000EADEC0AF0270E096E000E0A6EAE
:10117400A4EC0BF00C0EADEC0AF0040EADEC0AF08E
:101184002F0E096E100E0A6E20EC0BF00B0E1A6E69
:10119400260E196E5E0EE82EFED7192EFCD71A2ED7
:1011A400FAD786D7046E04A012D02350070B016E21
:1011B400010E026E012A02D0D8900236012EFCD70D
:1011C40020C0D9FF21C0DAFF0250DF1214D023500F
:1011D400070B016E010E026E012A02D0D89002366E
:1011E400012EFCD70250FF0A036E20C0D9FF21C094
:1011F400DAFF0350DF1604A214D02330E832E832B9
:10120400070B016E010E026E012A02D0D89002363D
:10121400012EFCD720C0D9FF21C0DAFF0250DF1213
:1012240016D02330E832E832070B016E010E026E4D
:10123400012A02D0D8900236012EFCD70250FF0AB0
:10124400036E20C0D9FF21C0DAFF0350DF1604A4C7
:1012540012D02450070B016E010E026E012A02D037
:10126400D8900236012EFCD720C0D9FF21C0DAFF66
:101274000250DF1214D02450070B016E010E026ECF
:10128400012A02D0D8900236012EFCD70250FF0A60
:10129400036E20C0D9FF21C0DAFF0350DF1604A675
:1012A40014D02430E832E832070B016E010E026ECE
:1012B400012A02D0D8900236012EFCD720C0D9FFD3
:1012C40021C0DAFF0250DF1212002430E832E83283
:1012D400070B016E010E026E012A02D0D89002366D
:1012E400012EFCD70250FF0A036E20C0D9FF21C093
:1012F400DAFF0350DF161200086E2250070B056E4A
:10130400010E066E052A02D0D8900636052EFCD7AB
:1013140020C0D9FF21C0DAFF0650DF1208380F0BB6
:101324000F0BD4EC08F02230E832E832070B056EDC
:10133400010E066E052A02D0D8900636052EFCD77B
:1013440020C0D9FF21C0DAFF0650DF121A0EE82EA2
:10135400FED700D02230E832E832070B056E010ECA
:10136400066E052A02D0D8900636052EFCD7065004
:10137400FF0A076E20C0D9FF21C0DAFF0750DF162D
:1013840008500F0BD4EC08F02230E832E832070B97
:10139400056E010E066E052A02D0D8900636052E7B
:1013A400FCD720C0D9FF21C0DAFF0650DF121A0E85
:1013B400E82EFED700D02230E832E832070B056E63
:1013C400010E066E052A02D0D8900636052EFCD7EB
:1013D4000650FF0A076E20C0D9FF21C0DAFF07506C
:1013E400DF16120020EE09F010EE20F0040EDBCF21
:1013F400E3FFE806FCE2800E201807E10F0E211837
:10140400D8A403D0000E926E13D0810E201807E1E9
:101414000F0E2118D8A403D0000E936E09D0820EAB
:10142400201846E10F0E2118D8A41200000E946E65
:10143400340E0E6EF20EE82EFED70E2EFCD7030EDF
:10144400ADEC0AF00D0E0E6EFC0EE82EFED70E2E3D
:10145400FCD7030EADEC0AF02A0E0E6E8E0EE82EAB
:10146400FED70E2EFCD7030EADEC0AF0020EADEC47
:101474000AF0020EADEC0AF0080EADEC0AF0000E14
:10148400ADEC0AF0060EADEC0AF0080E0F6E0F84F8
:101494000F380F0B0F0BADEC0AF00F500F0BADEC28
:1014A4000AF0000EADEC0AF0010EADEC0AF01200E9
:1014B40012000AC00EF00BC00FF00EC001F00FC0F6
:1014C40002F00CC003F00DC004F0F7EC0AF001C008
:1014D4000EF002C00FF0084A092A0E500F10D8A4CB
:1014E400ECD708C0D9FF09C0DAFF000EDF6E08068A
:1014F400D8A009060AC001F00BC002F00CC003F02A
:101504000DC004F066EC0BF00150106E0AC001F03F
:101514000BC002F00CC003F00DC004F0F7EC0AF0AD
:1015240001C00AF002C00BF0090E106402D0070ECD
:101534001026300E102608C0D9FF09C0DAFF10C0EB
:10154400DFFF0806D8A009060A500B10D8A4D2D78A
:10155400084A092A1200086E2250070B056E010E74
:10156400066E052A02D0D8900636052EFCD7065002
:10157400FF0A076E20C0D9FF21C0DAFF0750DF162B
:101584000850D4EC08F02230E832E832070B056E3C
:10159400010E066E052A02D0D8900636052EFCD719
:1015A40020C0D9FF21C0DAFF0650DF120B0E056EF2
:1015B400620EE82EFED7052EFCD700D02230E8328A
:1015C400E832070B056E010E066E052A02D0D8908C
:1015D4000636052EFCD70650FF0A076E20C0D9FF39
:1015E40021C0DAFF0750DF161200000E066E000E4F
:1015F400056E03500410D8B41CD0010E076E04D03D
:10160400D89003360436072A04AEFAD7D8900536A4
:1016140006360350015C04500258D8A005D003508C
:10162400015E0450025A0580D89004320332072E1A
:10163400EDD705C001F006C002F01200000E0E6ED8
:10164400000E0D6E10D00D5009240B6E0E500A20A2
:101654000C6E0BC0F6FF0CC0F7FF0800F5507EECD3
:1016640009F00D4A0E2A0D5009240B6E0E500A2063
:101674000C6E0BC0F6FF0CC0F7FF0800F550000914
:10168400D8B41200E0D711C017F012C018F014AE8D
:101694000CD011C0D9FF12C0DAFF2D0EDF6E114A33
:1016A400122A136C141ED8B0142A11C008F012C0E8
:1016B40009F013C00AF014C00BF015C00CF016C0EA
:1016C4000DF05BEC0AF0120003500410D8B418D0EB
:1016D400010E056E04D0D89003360436052A04AEF4
:1016E400FAD70350015C04500258D8A004D0035028
:1016F400015E0450025AD89004320332052EF1D709
:1017040001C001F002C002F01200DE0EF66E170EE8
:10171400F76E000EF86E00EE2FF010EE05F00900E3
:10172400F5CFEEFFE550E150FAE100EE20F00F0EA8
:10173400EE6AE806FDE1000EF86E100EF76E000189
:101744001AEF08F0000E0C6E000E0B6E0BD00B504F
:101754000924D96E0C500A20DA6EDF507EEC09F0B1
:101764000B4A0C2A0B500924D96E0C500A20DA6E4D
:10177400DF50D8B41200EBD7000E046E000E036ED7
:101784008C82060EE82EFED700D08C9283B007D050
:10179400FDD7034A042A260EE82EFED700D083B0D4
:1017A400F8D703C001F004C002F01200D388D38A32
:1017B400D38CC168000E806E000E816E000E826EA6
:1017C400000E836E000E926E000E936E000E946EE9
:0F17D400000E956E959295801200810F082C3EA5
:020000040020DA
:08000000FFFFFFFFFFFFFFFF00
:020000040030CA
:0E000000FFC8181EFF8381FF0FC00FE00F40E6
:00000001FF
