:04000000F2EF3AF0F1
:1075E4001E6A1D6A1C6A1B6A1A6A196A000EF86E02
:1075F40000018AEF3CF0086E08B002D0819401D0FB
:1076040081848192075027EC3BF0818212000A6E3C
:107614000A508009076E000EFDEC3AF0095040094B
:10762400076E000EFDEC3AF01200000E0F01386FE9
:10763400000E0F01396F000E0F013A6FD3508F0BFC
:107644006009D36E000E936E1200016E000E026E7E
:10765400070E026401D01200819801BE02D0819607
:1076640001D08186818801500124016E022AF0D75D
:1076740001500302F3CF05F0F4CF06F001500402E9
:10768400F350062602500302F350062605C001F00B
:1076940006C002F01200000E056E000E046E09D042
:1076A400030E036E980EE82EFED7032EFCD7044A71
:1076B400052A0150045C02500558D8B01200F0D7D6
:1076C400000E0C6E000E0B6E0CBE06D0F80E0B5C9A
:1076D400010E0C58D8B008D0000E076E010EFDEC58
:1076E4003AF00B4A0C2AF0D7000E096E000E09EC92
:1076F4003BF0120011C009F0105009EC3BF00AD025
:107704000EC0F6FF0FC0F7FF0800F5504DEC3CF03B
:107714000E4A0F2A0EC0F6FF0FC0F7FF0800F550FF
:107724000009D8B41200ECD703500410D8B418D010
:10773400010E056E04D0D89003360436052A04AE33
:10774400FAD70350015C04500258D8A004D0035067
:10775400015E0450025AD89004320332052EF1D748
:1077640001C001F002C002F0120011C017F012C0F3
:1077740018F014AE0CD011C0D9FF12C0DAFF2D0ED0
:10778400DF6E114A122A136C141ED8B0142A11C0C9
:1077940008F012C009F013C00AF014C00BF015C0B1
:1077A4000CF016C00DF0C7EC3CF012000EC009F04E
:1077B4000D5009EC3BF0000E126E000E116E12BE5D
:1077C40006D0F80E115C010E1258D8B012001150F8
:1077D4000B240F6E12500C20106E0FC0F6FF10C059
:1077E400F7FF0800F5CF07F0010EFDEC3AF0114A5F
:1077F400122AE5D7939093929394939693988182C7
:10780400819000F08180210E076E000EFDEC3AF0AD
:10781400B00E076E000EFDEC3AF0040E076E000E7B
:10782400FDEC3AF0140E076E000EFDEC3AF0200E5B
:10783400076E000EFDEC3AF00C0E076E000EFDEC28
:107844003AF01200000E066E000E056E035004108E
:10785400D8B41CD0010E076E04D0D8900336043679
:10786400072A04AEFAD7D890053606360350015CD1
:1078740004500258D8A005D00350015E0450025AA7
:107884000580D89004320332072EEDD705C001F0ED
:1078940006C002F012000B6E000E076E010EFDEC26
:1078A4003AF0000E0D6E000E0C6E0DBE06D00D509B
:1078B40029E1050E0C5CD8B025D0E00E0B24016E36
:1078C400026AFF0E0222000E046E050E036E3AECED
:1078D4003BF0E50E096E7B0E0A6E0150092602503C
:1078E4000A220C5009260D500A2209C0F6FF0AC0CC
:1078F400F7FF0800F5CF07F0010EFDEC3AF00C4A53
:107904000D2AD3D7000E076E010EFDEC3AF01200DB
:1079140017EC3BF0FCEC3BF062EC3BF0000E026E2B
:107924000A0E016E4DEC3BF0000E1A6E000E196E3D
:1079340019EC3DF0194A1A2AD30E195C040E1A5890
:10794400D8A00CD0300E1B6E300E1C6E300E1D6E87
:10795400300E1E6E000E1A6E000E196E1B0E116E86
:10796400000E126E19C013F01AC014F0000E166E39
:107974000A0E156EB7EC3BF06EEC3DF0000E026E95
:10798400640E016E4DEC3BF0D5D70AC00EF00BC06F
:107994000FF00EC001F00FC002F00CC003F00DC0D8
:1079A40004F024EC3CF001C00EF002C00FF0084AD1
:1079B400092A0E500F10D8A4ECD708C0D9FF09C06B
:1079C400DAFF000EDF6E0806D8A009060AC001F02F
:1079D4000BC002F00CC003F00DC004F096EC3BF0B9
:1079E4000150106E0AC001F00BC002F00CC003F08D
:1079F4000DC004F024EC3CF001C00AF002C00BF00E
:107A0400090E106402D0070E1026300E102608C08E
:107A1400D9FF09C0DAFF10C0DFFF0806D8A00906A5
:107A24000A500B10D8A4D2D7084A092A1200C50E4E
:107A34000B6E7D0E0C6E000E0D6E000E0E6ED8ECED
:107A44003BF00B0E026EB80E016E4DEC3BF062EC97
:107A54003BF0CA0E0E6E7F0E0F6E000E106E000EFF
:107A6400116E7CEC3BF0E30E0E6E7F0E0F6E000E7B
:107A7400106E090E116E7CEC3BF0EE0E0E6E7F0E56
:107A84000F6E000E106E120E116E7CEC3BF0D70ED2
:107A94000E6E7F0E0F6E000E106E1B0E116E7CECC0
:107AA4003BF0BD0E0E6E7F0E0F6E000E106E240E98
:107AB400116E7CEC3BF00B0E026EB80E016E4DECB9
:107AC4003BF0300E1B6E300E1C6E300E1D6E300EF1
:107AD4001E6E62EC3BF0120062EC3BF0F70E0E6E91
:107AE4007F0E0F6E000E106E000E116E7CEC3BF0DC
:107AF4001A500DE10A0E195CD8B009D00A0E096EAD
:107B0400000E09EC3BF01B504DEC3CF012001A50F7
:107B140004E10A0E195CD8A017D01A5015E1640EBE
:107B2400195CD8B011D00A0E096E000E09EC3BF0B6
:107B34001B504DEC3CF00A0E096E0A0E09EC3BF0AA
:107B44001C504DEC3CF012001A5004E1640E195C18
:107B5400D8A01FD0E80E195C030E1A58D8B019D05B
:107B64000A0E096E000E09EC3BF01B504DEC3CF084
:107B74000A0E096E0A0E09EC3BF01C504DEC3CF069
:107B84000A0E096E140E09EC3BF01D504DEC3CF04E
:107B94001200E80E195C030E1A58D8A012000A0E3F
:107BA400096E000E09EC3BF01B504DEC3CF00A0E44
:107BB400096E0A0E09EC3BF01C504DEC3CF00A0E29
:107BC400096E140E09EC3BF01D504DEC3CF00A0E0E
:107BD400096E1E0E09EC3BF01E504DEC3CF01200F9
:107BE40000000000000000005F0000000700070024
:107BF400147F147F14242A7F2A1223130864623604
:107C0400495522500005030000001C224100004198
:107C1400221C0014083E081408083E0808005030CE
:107C2400000008080808080060600000201008042C
:107C3400023E5149453E00427F400042615149465F
:107C44002141454B311814127F1027454545393CD5
:107C54004A494930017109050336494949360649FB
:107C640049291E003636000000563600000814224A
:107C7400410014141414140041221408020151097F
:107C840006324979413E7E1111117E7F49494936B8
:107C94003E414141227F4141221C7F494949417F64
:107CA400090909013E4149497A7F0808087F0041D2
:107CB4007F41002040413F017F081422417F404022
:107CC40040407F020C027F7F0408107F3E41414107
:107CD4003E7F090909063E4151215E7F0919294663
:107CE400464949493101017F01013F4040403F1F5E
:107CF4002040201F3F4038403F63140814630708A6
:107D04007008076151494543007F4141000204085E
:107D140010200041417F0004020102044040404021
:107D240040000102040020545454787F48444438ED
:107D34003844444420384444487F38545454180840
:107D44007E0901020C5252523E7F0804047800441A
:107D54007D40002040443D007F1028440000417FC6
:107D640040007C041804787C0804047838444444B3
:107D7400387C14141408081414187C7C08040408AF
:107D84004854545420043F4440203C4040207C1C30
:107D94002040201C3C4030403C44281028440C50D7
:107DA40050503C4464544C44000836410000007F69
:107DB40000000041360800100808100878464146C3
:107DC40078FF01FDFDFD0D0D0D0D0D0D0D0D0D0DBE
:107DD400CDCDCDCDCDCDCDCDCDCDCDCDFDFDFDFD0F
:107DE4003D3D1D1D0D0D0D2DEDEDCDDD1D7DFDFD6F
:107DF400FDFDFDFDFDFDFD0D0D0D0D0D0D0D0D0D1F
:107E04000D0D0DEDEDEDEDCDDDDD9D3D7DFDFDFDBE
:107E1400FDFDFD01FFFF00FFFFFF0000000000006B
:107E240000000000E7E7E7E7E7E7E7E7E7E7E7E77A
:107E3400FFFFFFF08000000000000000010F0F674B
:107E4400F0FCFFFFFF7F7F7F7FFFFF00000000004B
:107E540000000000000000FFFFFFFFFFFFFFFFFF27
:107E6400FE00071FFFFFFF00FFFF00FFFFFF0000F2
:107E74000000000000000000FFFFFFFFFFFFFFFF06
:107E8400FFFFFFFFFF0F07C1F8FEF8E0C00000008E
:107E9400000000000007071178FEFFFFFFFFFF004E
:107EA40000000000000000000000001F3F7F7F7FF3
:107EB4003FBF9FCFC7F0F8FEFFFFFF00FFFF00FFAB
:107EC400FFFFE0E0E0E0E0E0E0E0E0E0E7E7E7E754
:107ED400E7E7E7E7E7E7E7E7FFFEF0F1E7EFEFEFD4
:107EE400EFE7F6F0F0E0E0E0E0E0E0E0E0E0E1EF32
:107EF400EFFFFFE0E0E0E0E0E0E0E0E0E0E0E0FF12
:107F0400FFFEF8F9F1F7E7E7EFEFFFFFFFFFFF00F0
:107F1400FFFF00FFFFFFFFFF83FF83FFFF03C73F58
:107F2400C703FFFF0FEFEFFF07FBFBFB77FFFF0329
:107F3400EFEF0FFFFF0FFFFF0FFFFF0FEFEF0FFF3D
:107F4400FF0FEF4FFFFF03BF4FFFFF0FFFFF0FFFB9
:107F5400FF0FAF8FFFFF0FAF8FFFFF83FF83FFFF85
:107F6400FFFFFF00FFFF80BFBFBFBFBFBEBFBEBFDD
:107F7400BFBEBFBEBFBEBFBFBEBFBFBFBFBEBEBE14
:107F8400BFBFBFBEBFBFBEBFBFBEBEBEBEBFBFBE04
:107F9400BFBFBEBFBFBEBEBEBFBFBEBFBEBEBFBEF5
:107FA400BEBEBEBFBFBEBEBEBFBFBEBEBEBFBFBEE7
:107FB400BFBEBFBFBFBFBF80FF4D504C4142582022
:107FC4002620584338004C69627265726961204CFE
:107FD4004344004D724368756E636B756565004E6E
:107FE4006F6B6961203531313000436F6E746164A9
:0C7FF4006F7200436F6E74656F3A0000FE
:020000040020DA
:08000000FFFFFFFFFFFFFFFF00
:020000040030CA
:0E000000FF28193CFFB581FF0FC00FE00F4035
:00000001FF
