:0400000053EF00F0CA
:100008004382FACF01F0FBCF02F0E9CF03F0EACF49
:1000180004F0E1CF05F0E2CF06F0D9CF07F0DACF50
:1000280008F0F3CF09F0F4CF0AF0F6CF0BF0F7CFD2
:100038000CF0F8CF0DF0F5CF0EF0F2A412D0414A33
:10004800422AE80E415C030E4258D8A005D0827CB3
:10005800000E426E000E416EF80ED76E300ED66E50
:10006800F2940EC0F5FF0DC0F8FF0CC0F7FF0BC0EF
:10007800F6FF0AC0F4FF09C0F3FF08C0DAFF07C0A3
:10008800D9FF06C0E2FF05C0E1FF04C0EAFF03C0D4
:10009800E9FF02C0FBFF01C0FAFF439211007CEFA9
:0200A80005F061
:1006000000204C434420313678322026205843388D
:03061000200000C7
:10061400126E12A012D03F50070B0F6E010E106E17
:100624000F2A02D0D89010360F2EFCD73CC0D9FF29
:100634003DC0DAFF1050DF1214D03F50070B0F6E8D
:10064400010E106E0F2A02D0D89010360F2EFCD750
:100654001050FF0A116E3CC0D9FF3DC0DAFF1150A3
:10066400DF1612A214D03F30E832E832070B0F6EC7
:10067400010E106E0F2A02D0D89010360F2EFCD720
:100684003CC0D9FF3DC0DAFF1050DF1216D03F3016
:10069400E832E832070B0F6E010E106E0F2A02D0FB
:1006A400D89010360F2EFCD71050FF0A116E3CC0A4
:1006B400D9FF3DC0DAFF1150DF1612A412D040500A
:1006C400070B0F6E010E106E0F2A02D0D890103651
:1006D4000F2EFCD73CC0D9FF3DC0DAFF1050DF120B
:1006E40014D04050070B0F6E010E106E0F2A02D06B
:1006F400D89010360F2EFCD71050FF0A116E3CC054
:10070400D9FF3DC0DAFF1150DF1612A614D04030D5
:10071400E832E832070B0F6E010E106E0F2A02D07A
:10072400D89010360F2EFCD73CC0D9FF3DC0DAFF5D
:100734001050DF1212004030E832E832070B0F6E1F
:10074400010E106E0F2A02D0D89010360F2EFCD74F
:100754001050FF0A116E3CC0D9FF3DC0DAFF1150A2
:10076400DF16120009EC06F020EE37F010EE1EF052
:10077400040EDBCFE3FFE806FCE220EE1EF000EE01
:1007840017F0040EDBCFEBFFE806FCE2C8EC04F044
:10079400000E32EC05F0010E32EC05F0000E32ECE6
:1007A40005F0010E32EC05F0080E32EC05F0000EF7
:1007B40032EC05F0010E176E060E186EABEC05F068
:1007C4000C0E32EC05F0000E32EC05F0000E236E38
:1007D4000E0E236401D013D02350010D260EF324F2
:1007E400D96E000EF420DA6EDF5052EC04F0010EE4
:1007F400106E2C0E0F6ED0EC05F0232AE9D7030EF1
:10080400106EE80E0F6ED0EC05F0000E32EC05F021
:10081400010E32EC05F0080E32EC05F0000E32EC5D
:1008240005F0000E246E0F0E246401D013D0245062
:10083400010D600EF324D96E000EF420DA6EDF5041
:1008440052EC04F0010E106E2C0E0F6ED0EC05F07D
:10085400242AE9D70C0E32EC05F0000E32EC05F038
:10086400100E256E1F0E256401D013D02550010DE6
:10087400600EF324D96E000EF420DA6EDF5052ECD1
:1008840004F0010E106E2C0E0F6ED0EC05F0252A2C
:10089400E9D7030E106EE80E0F6ED0EC05F07ED78C
:1008A400166E3E50070B136E010E146E132A02D0FF
:1008B400D8901436132EFCD73CC0D9FF3DC0DAFFC4
:1008C4001450DF1216380F0B0F0B0AEC03F03E30F6
:1008D400E832E832070B136E010E146E132A02D0AD
:1008E400D8901436132EFCD73CC0D9FF3DC0DAFF94
:1008F4001450DF12350EE82EFED700F03E30E832F9
:10090400E832070B136E010E146E132A02D0D8902E
:100914001436132EFCD71450FF0A156E3CC0D9FFB1
:100924003DC0DAFF1550DF1616500F0B0AEC03F02A
:100934003E30E832E832070B136E010E146E132AB0
:1009440002D0D8901436132EFCD73CC0D9FF3DC03A
:10095400DAFF1450DF12350EE82EFED700F03E30D9
:10096400E832E832070B136E010E146E132A02D01C
:10097400D8901436132EFCD71450FF0A156E3CC0C1
:10098400D9FF3DC0DAFF1550DF16120020EE17F034
:1009940010EE3CF0040EDBCFE3FFE806FCE2800E31
:1009A4003C1807E10F0E3D18D8A403D0000E926E38
:1009B40013D0810E3C1807E10F0E3D18D8A403D0C4
:1009C400000E936E09D0820E3C1849E10F0E3D18BB
:1009D400D8A41200000E946E680E1C6EE40EE82E6D
:1009E400FED71C2EFCD700D0030E32EC05F01A0EF5
:1009F4001C6EF80EE82EFED71C2EFCD700D0030E7A
:100A040032EC05F0540E1C6E1C0EE82EFED71C2E84
:100A1400FCD700D0030E32EC05F0020E32EC05F0E8
:100A2400020E32EC05F0080E32EC05F0000E32EC4A
:100A340005F0060E32EC05F0080E1D6E1D841D38FF
:100A44000F0B0F0B32EC05F01D500F0B32EC05F0C1
:100A5400000E32EC05F0010E32EC05F0120012002B
:100A6400166E3E50070B136E010E146E132A02D03D
:100A7400D8901436132EFCD71450FF0A156E3CC0C0
:100A8400D9FF3DC0DAFF1550DF1616500AEC03F00B
:100A94003E30E832E832070B136E010E146E132A4F
:100AA40002D0D8901436132EFCD73CC0D9FF3DC0D9
:100AB400DAFF1450DF12150E136EC60EE82EFED7A1
:100AC400132EFCD700D03E30E832E832070B136E09
:100AD400010E146E132A02D0D8901436132EFCD7AC
:100AE4001450FF0A156E3CC0D9FF3DC0DAFF155003
:100AF400DF161200F00EF66E0B0EF76E000EF86E97
:100B040000EE60F010EE21F00900F5CFEEFFE550A5
:100B1400E150FAE1320EF66E0C0EF76E000EF86E2E
:100B240000EE26F010EE16F00900F5CFEEFFE550CA
:100B3400E150FAE100EE3CF0070EEE6AE806FDE152
:100B440043904392000EF86E060EF76E0001B4EF68
:100B540003F0000E1C6E000E1B6E10D01B501724E9
:100B6400196E1C5018201A6E19C0F6FF1AC0F7FF30
:100B74000800F55052EC04F01B4A1C2A1B501724A1
:100B8400196E1C5018201A6E19C0F6FF1AC0F7FF10
:100B94000800F5500009D8B41200E0D7000E136E17
:100BA400000E126E0AD0060E116E300EE82EFED71D
:100BB400112EFCD700D0124A132A0F50125C105089
:100BC4001358D8B01200EFD7D58ED59CD59AD598A6
:100BD400D596D590D592D594F80ED76E300ED66EA4
:100BE400F294F28AF184D08EF28E120068747470DA
:100BF4003A2F2F6D726368756E636B7565652E622F
:0D0C04006C6F6773706F742E636F6D2F003F
:100C1200000E0F01386F000E0F01396F000E0F0129
:100C22003A6FD388D38AD38C949CE6EC05F01200F9
:100C320020204D724368756E636B756565212020B7
:060C420000810F082C3EAA
:020000040020DA
:08000000FFFFFFFFFFFFFFFF00
:020000040030CA
:0E000000FF28193CFFB581FF0FC00FE00F4035
:00000001FF
