:0400000053EF00F0CA
:100008001182FACF01F0FBCF02F0E9CF03F0EACF7B
:1000180004F0E1CF05F0E2CF06F0D9CF07F0DACF50
:1000280008F0F3CF09F0F4CF0AF0F6CF0BF0F7CFD2
:100038000CF0F8CF0DF0F5CF0EF0F2A412D00F4A65
:10004800102AE80E0F5C030E1058D8A005D0827E47
:10005800000E106E000E0F6EF80ED76E300ED66EB4
:10006800F2940EC0F5FF0DC0F8FF0CC0F7FF0BC0EF
:10007800F6FF0AC0F4FF09C0F3FF08C0DAFF07C0A3
:10008800D9FF06C0E2FF05C0E1FF04C0EAFF03C0D4
:10009800E9FF02C0FBFF01C0FAFF119211007EEFD9
:1000A80000F0000E0F01386F000E0F01396F000EBF
:1000B8000F013A6FD388D38AD38C000E936E000E4B
:1000C800946E000E816E000E826E6CEC00F01200D1
:1000D800D58ED59CD59AD598D596D590D592D594C8
:1000E800F80ED76E300ED66EF294F28AF184D08E66
:1000F800F28E1200106A0F6A11901192000185EFBA
:0801080000F055EC00F0FFD7F8
:020000040020DA
:08000000FFFFFFFFFFFFFFFF00
:020000040030CA
:0E000000FF28193CFFB581FF0FC00FE00F4035
:00000001FF
