:0400000059EF03F0C1
:100600000001020408102040803C4281A18995A588
:10061000420044EC03F00650010D090EF324F66E7F
:10062000060EF420F76E0800F5CF81FF0650010D8D
:10063000010EF324F66E060EF420F76E0800F5CFD7
:1006400082FF000E026E010E016E2EEC03F0062AF0
:10065000080E0664E0D7000E066EDDD7000E056EAC
:10066000000E046E0AD0060E036E300EE82EFED782
:10067000032EFCD700D0044A052A0150045C025026
:100680000558D8B01200EFD7000E0F01386F000EDA
:100690000F01396F000E0F013A6FD388D38AD38CC4
:1006A000000E936E000E946E000E816E000E826E30
:1006B0001200066A000EF86E060EF76E000109EFD2
:0206C00003F045
:020000040020DA
:08000000FFFFFFFFFFFFFFFF00
:020000040030CA
:0E000000FF28193CFFB581FF0FC00FE00F4035
:00000001FF
