:0400000067EF00F0B6
:10000800FACF05F0FBCF06F0E9CF07F0EACF08F00A
:10001800E1CF09F0E2CF0AF0D9CF0BF0DACF0CF03C
:10002800F3CF0DF0F4CF0EF0F6CF0FF0F7CF10F0BE
:10003800F8CF11F0F5CF12F0F0A228D08A98FF0E71
:1000480056EC02F0136E8A8813AA09D0046E200EAB
:10005800026E0450070E29EC02F0000E496E13A838
:100068000DD0046E100E026E0450070E29EC02F03B
:100078008A860D0EE82EFED700F08A9613A005D0CA
:100088008A98E10E56EC02F08A88F09212C0F5FFC9
:1000980011C0F8FF10C0F7FF0FC0F6FF0EC0F4FF45
:1000A8000DC0F3FF0CC0DAFF0BC0D9FF0AC0E2FF96
:1000B80009C0E1FF08C0EAFF07C0E9FF06C0FBFF6F
:1000C80005C0FAFF110042EF02F0E8CF21F0206EE0
:1000D800020E156E2050050E0FEC02F0206E260E53
:1000E800156E2050060E0FEC02F0206E4C0E156EA9
:1000F8002050000E0FEC02F0206E2F0E156E2050CF
:10010800040E0FEC02F09ED0206EE70E266E2050F3
:1001180026C025F025C024F024C023F023C022F0F7
:10012800000E1E6E220E1D6E36EC02F0000E1E6EC4
:10013800220E1D6E01EC02F098D0206EC20E266EC3
:10014800205026C025F025C024F024C023F023C069
:1001580022F0000E1E6E220E1D6E36EC02F0000E0E
:100168001E6E220E1D6E01EC02F07FD0206EC20EB4
:10017800266E205026C025F025C024F024C023F088
:10018800206EC30E226E2050000E1E6E220E1D6EB3
:1001980036EC02F0000E1E6E220E1D6E01EC02F00F
:1001A80064D0206EC20E266E205026C025F025C0D1
:1001B80024F024C023F0206EC40E226E2050000EBE
:1001C8001E6E220E1D6E36EC02F0000E1E6E220E02
:1001D8001D6E01EC02F049D0206EC20E266E205032
:1001E80026C025F025C024F024C023F0206EC50EBB
:1001F800226E2050000E1E6E220E1D6E36EC02F08E
:10020800000E1E6E220E1D6E01EC02F02ED0206E26
:10021800C20E266E205026C025F025C024F024C02A
:1002280023F0206EC60E226E2050000E1E6E220E87
:100238001D6E36EC02F0000E1E6E220E1D6E01ECD5
:1002480002F013D02150000AD8B45ED7010AD8B4FE
:1002580074D7030AD8B48AD7010AD8B4A2D7070A30
:10026800D8B4BAD7010AD8B4D2D7000E496E206ED6
:100278004E0E156E2050000E0FEC02F01200276E85
:10028800000E386E2750D388D38AD38C949E8B8ED9
:100298001CEC02F0000E156E050E146EF1EC01F068
:1002A800F28CF28E000E69EC00F08B9E276E000E29
:1002B800396E27500BD03950010D280EF324D96E12
:1002C800000EF420DA6E39C0DFFF392A0F0E3964C8
:1002D800F2D738C028F03828296E000E1A6E280E7A
:1002E800196E276E100E1B6E275091EC01F0382AFC
:1002F8000F0E386404D0276E000E386E2750000E9B
:10030800156E320E146EF1EC01F08B8E000E156E28
:10031800320E146EF1EC01F0C8D74966FED78A9602
:10032800010E496E1C6E4E0E156E1C50000E0FEC21
:1003380002F08A98E10E4DEC02F08A888A98A00EA5
:100348004DEC02F01AC015F019C014F01BC016F0DD
:10035800176AB7EC01F08A888A860D0EE82EFED758
:1003680000F08A96120010D014C0D9FF15C0DAFF29
:10037800DF50C96E9EA6FED79E96C9CF18F0160606
:10038800D8A01706144A152A17501610D8B4120008
:10039800EBD7E8CF1CF08A981C501F0B20094DECB6
:1003A80002F01AC015F019C014F01BC016F0176A35
:1003B800B7EC01F08A881200C69A94880F010F01E1
:1003C8003A99928A949A9496C698C78CC78EC69082
:1003D800C692C694C696C68A12000AD0340E166E05
:1003E800F20EE82EFED7162EFCD71406D8A0150656
:1003F80015501410D8B41200F1D78A961EC01AF0FE
:100408001DC019F01F6E050E1B6E1F500A0ECDEC95
:1004180001F08A861200E8CF16F08A9816501F0B52
:1004280020094DEC02F015504DEC02F08A881200BC
:10043800939893968A968A880F010F013995938429
:10044800F198F088E0EC01F01200E8CF03F08A9808
:1004580003501F0B200956EC02F0025056EC02F034
:100468008A8812001EC01AF01DC019F01F6E050EF2
:100478001B6E1F50100ECDEC01F0120000EE3AF08A
:10048800100EEE6AE806FDE1000EF86E000143EF7B
:1004980001F0E8CF14F014C0C9FF9EA6FED79E96BF
:1004A800C9501200E8CF01F001C0C9FF9EA6FED7CF
:0604B8009E96C9501200DF
:020000040020DA
:08000000FFFFFFFFFFFFFFFF00
:020000040030CA
:0E000000FF481E3CFFBF85FF0FC00FE00F4002
:00000001FF
