:020000040000FA
:040000001FEF00F0FE
:100008000E82FACF02F0FBCF03F0F2AA0EEF00F057
:1000180010EF00F019EF00F0F2A415EF00F017EF61
:1000280000F019EF00F021EC00F003C0FBFF02C064
:10003800FAFF0E921100ADEF00F0F2940B50D76E5C
:100048000AC0D6FF0C500D10D8B42DEF00F02FEFDA
:1000580000F03CEF00F002D83CEF00F00500FA6E2B
:100068000C50FD6E0D50FE6EF850FF6EFA501200E7
:100078008BBC41EF00F044EF00F0010E45EF00F0BB
:10008800000EFF0A016E013A014601468B50011825
:10009800BF0B01188B6E1200A4EC00F0F28E8BBE21
:1000A80058EF00F05BEF00F0010E5CEF00F0000E7F
:1000B800FF0A086E083208328B5008187F0B0818A0
:1000C8008B6E030E096E8A0E086E560EE82EFED74A
:1000D800082EFCD7092EFAD753EF00F01FEF00F0D7
:1000E800D59CF00ED76EBD0ED66ED650D7CF06F083
:1000F800076A06C007F0066A06100A6E07500B6EFC
:10010800F294F28A840E046E010E056EBBEC00F0C8
:10011800970ED56E1200000E896E000E8A6E000EC4
:100128008B6E926893683F0E946E3C0E0F013A6F87
:100138003F0E396F2F0E386F000E616EF18E120070
:10014800C0EC00F08FEC00F0B4EC00F074EC00F0C0
:1001580012000E900E92000EF86E000150EF00F0A3
:10016800620ED36E040ED26E000E9B6E120004C097
:0E0178000CF005C00DF01200D09E1200120017
:020000040020DA
:08000000FFFFFFFFFFFFFFFF00
:020000040030CA
:0E000000FF281F3CFFBF85FF0FC00FE00F4021
:00000001FF
