:0400000067EF00F0B6
:10000800FACF05F0FBCF06F0E9CF07F0EACF08F00A
:10001800E1CF09F0E2CF0AF0D9CF0BF0DACF0CF03C
:10002800F3CF0DF0F4CF0EF0F6CF0FF0F7CF10F0BE
:10003800F8CF11F0F5CF12F0F0A228D08A98FF0E71
:1000480057EC01F0136E8A8813AA09D0046E200EAB
:10005800026E0450070E36EC01F0000E406E13A835
:100068000DD0046E100E026E0450070E36EC01F02F
:100078008A860D0EE82EFED700F08A9613A005D0CA
:100088008A98E10E57EC01F08A88F09212C0F5FFC9
:1000980011C0F8FF10C0F7FF0FC0F6FF0EC0F4FF45
:1000A8000DC0F3FF0CC0DAFF0BC0D9FF0AC0E2FF96
:1000B80009C0E1FF08C0EAFF07C0E9FF06C0FBFF6F
:1000C80005C0FAFF110043EF01F01E6E000E306EFE
:1000D8001E50D388D38AD38C1CEC01F0000E156E09
:1000E800050E146EFEEC00F0F00E95160F0E8C1235
:1000F800F28CF28E94EC00F00EEC01F00009D8B40A
:10010800FBD7000E1B6E1F0E1A6EB4EC00F02F6E9C
:100118001FC030F00F0E8C121F50FF0A8C16ECD740
:10012800176E020E156E1750050E29EC01F0176EAA
:10013800260E156E1750060E29EC01F0176E100EDC
:10014800156E1750110E29EC01F0000E406E176E57
:100158004F0E156E1750000E29EC01F08A8612001A
:100168008A98610E4EEC01F01D6E1BC015F01AC086
:1001780014F01BC017F01AC016F0000E196E100EFE
:10018800186ED1EC00F08A881C6E400E156E1C505B
:10019800070E29EC01F01D50120016D014C0D9FF2B
:1001A80015C0DAFFDF50C96E9EA6FED79E9616C010
:1001B800D9FF17C0DAFFC9CFDFFF1806D8A0190684
:1001C800144A152A164A172A19501810D8B41200BA
:1001D800E5D7C69A94880F010F013A99928A949AA2
:1001E8009496C698C78CC78EC690C692C694C69673
:1001F800C68A12000AD0340E166EF20EE82EFED70A
:10020800162EFCD71406D8A0150615501410D8B40D
:100218001200F1D74050D8B402D0000E12008A98CC
:10022800FF0E4EEC01F0156E8A881550400B120037
:10023800939893968A968A880F010F01399593842B
:10024800F198F088EDEC00F01200E8CF16F08A98EB
:1002580016501F0B20094EEC01F015504EEC01F022
:100268008A881200E8CF03F08A9803501F0B2009F0
:1002780057EC01F0025057EC01F08A88120000EEAA
:1002880031F0100EEE6AE806FDE1000EF86E00018E
:1002980069EF00F0E8CF14F014C0C9FF9EA6FED79E
:1002A8009E96C9501200E8CF01F001C0C9FF9EA672
:0802B800FED79E96C95012000A
:020000040020DA
:08000000FFFFFFFFFFFFFFFF00
:020000040030CA
:0E000000FF481E3CFFBF85FF0FC00FE00F4002
:00000001FF
