:04000000E3EF00F03A
:100008001B82FACF01F0FBCF02F0E9CF03F0EACF71
:1000180004F0E1CF05F0E2CF06F0D9CF07F0DACF50
:1000280008F0F3CF09F0F4CF0AF0F6CF0BF0F7CFD2
:100038000CF0F8CF0DF0F5CF0EF0F2A4A2D0184ACC
:10004800192AF40E185C010E1958D8A095D0000E84
:10005800196E000E186E71D010681168600E126E5D
:10006800300E136E300E146E600E32D0166832D019
:1000780010681168D80E126EDC0E136EDE0E146E48
:10008800DB0E156EF90E166E700E44D01A2A74D057
:100098001168C30E126EC30E136EC30E146EC30E18
:1000A800156EE70E166E660E35D010681168180EBC
:1000B800126E180E136E180E146E180E09D01068F2
:1000C8001168700E126E380E136E1C0E146E0E0E22
:1000D800156ECCD71768DAD77E0E106ED9D7FE0EFC
:1000E800106E1168030E126E030E136E030E146E5B
:1000F800030E156E1668FE0E0DD010681168DB0E23
:10010800126EDB0E136EDB0E146EDB0E156EC30E55
:10011800166EC30E176EBAD710681168DB0E126E12
:10012800DB0E136EDB0E146EDB0E156EC30E166E31
:10013800C30E176E000E1A6E1FD01A50000AD8B4DC
:100148008BD7010AD8B494D7030AD8B4C5D7010A03
:10015800D8B4ABD7070AD8B4C2D7010AD8B4AFD736
:10016800030AD8B4B9D7010AD8B4B9D70F0AD8B492
:10017800C4D7010AD8B4D0D7F80ED76E300ED66ED1
:10018800F2940EC0F5FF0DC0F8FF0CC0F7FF0BC0CE
:10019800F6FF0AC0F4FF09C0F3FF08C0DAFF07C082
:1001A800D9FF06C0E2FF05C0E1FF04C0EAFF03C0B3
:1001B800E9FF02C0FBFF01C0FAFF1B92110071EFBB
:1001C80001F048EC01F0010E826E10C081FF0B0EA9
:1001D8000F6E620EE82EFED70F2EFCD700D0020E4F
:1001E800826E11C081FF0B0E0F6E620EE82EFED7D5
:1001F8000F2EFCD700D0040E826E12C081FF0B0EAA
:100208000F6E620EE82EFED70F2EFCD700D0080E18
:10021800826E13C081FF0B0E0F6E620EE82EFED7A2
:100228000F2EFCD700D0100E826E14C081FF0B0E6B
:100238000F6E620EE82EFED70F2EFCD700D0200ED0
:10024800826E15C081FF0B0E0F6E620EE82EFED770
:100258000F2EFCD700D0400E826E16C081FF0B0E09
:100268000F6E620EE82EFED70F2EFCD700D0800E40
:10027800826E17C081FF0B0E0F6E620EE82EFED73E
:100288000F2EFCD700D09FD7000E0F01386F000E3D
:100298000F01396F000E0F013A6FD388D38AD38CC0
:1002A800000E936E000E946E000E816E000E826E2C
:1002B8005FEC01F01200D58ED59CD59AD598D596CD
:1002C800D590D592D594F80ED76E300ED66EF2949E
:1002D800F28AF184D08EF28E120000EE10F00B0E2E
:1002E800EE6AE806FDE11B901B92000EF86E000115
:0402F800E5EF00F03E
:020000040020DA
:08000000FFFFFFFFFFFFFFFF00
:020000040030CA
:0E000000FF28193CFFB581FF0FC00FE00F4035
:00000001FF
