:040000006BEF00F0B2
:100008003F82FACF22F0FBCF23F0E9CF24F0EACFEA
:1000180025F0E1CF26F0E2CF27F0D9CF28F0DACFCC
:1000280029F0F3CF2AF0F4CF2BF0F6CF2CF0F7CF4E
:100038002DF0F8CF2EF0F5CF2FF0F2A42AD03C0403
:100048003B10D8A404D0000E3C6E000E3B6E3B4A19
:100058003C2A35503B5C000E3C58D8B002D0818019
:1000680001D0819036503B5C000E3C58D8B002D08D
:10007800818201D0819237503B5C000E3C58D8B049
:1000880002D0818401D08194000ED76EB20ED66E54
:10009800F2942FC0F5FF2EC0F8FF2DC0F7FF2CC03B
:1000A800F6FF2BC0F4FF2AC0F3FF29C0DAFF28C0EF
:1000B800D9FF27C0E2FF26C0E1FF25C0EAFF24C020
:1000C800E9FF23C0FBFF22C0FAFF3F92110006EFB1
:1000D80001F081D0394A3A2A3A043910D8A406D016
:1000E800010E3D6E000E3A6E000E396E000E306E37
:1000F800000E316E395063EC01F07BD0394A3A2A50
:100108003A043910D8A406D0020E3D6E000E3A6E9D
:10011800000E396E39C030F0000E316E000E63ECFF
:1001280001F067D0394A3A2A3A043910D8A406D0DF
:10013800030E3D6E000E3A6E000E396E000E306EE4
:1001480039C031F0000E63EC01F053D0000E3E6E62
:100158000A0E3E6401D035D03E50030D010EF32641
:10016800000EF422010EF324D96E000EF420DA6E8C
:10017800DF50306E3E50030D020EF326000EF422BF
:10018800010EF324D96E000EF420DA6EDF50316EC2
:100198003E50030D010EF324D96E000EF420DA6EE2
:1001A800DF5063EC01F0150E346E4B0E336EBE0E4D
:1001B800E82EFED7332EFCD7342EFAD700D03E2AAD
:1001C800C7D7000E3D6E15D0000E3D6E000E3A6E7C
:1001D800000E396E0ED03D50000AD8B47BD7010A04
:1001E800D8B48CD7030AD8B49DD7010AD8B4AED7EF
:1001F800EBD79C0E336ED70EE82EFED7332EFCD7E6
:1002080000F01200A40EF66E020EF76E000EF86EE5
:1002180000EE01F010EE21F00900F5CFEEFFE550F9
:10022800E150FAE100EE35F00A0EEE6AE806FDE16B
:100238003F903F92000EF86E00016BEF01F0000E48
:100248000F01386F000E0F01396F000E0F013A6F62
:10025800D388D38AD38C000E936E000E946E000E52
:10026800816E000E826E000E356E000E366E000E28
:10027800376E40EC01F01200D58ED58CD59AD59802
:10028800D596D590D592D594000ED76EB20ED66E6F
:10029800F294F28AF184D08EF28E1200FF00008B65
:1002A8000000FF7F00FFFF0000FF000000FF00FFCD
:0D02B800FF7FFFD44B00828F00FFFFFFFF90
:1002C600326E32C035F030C036F031C037F0120031
:0A02D60023EC01F06DEC00F0FDD701
:020000040020DA
:08000000FFFFFFFFFFFFFFFF00
:020000040030CA
:0E000000FF28193CFFB581FF0FC00FE00F4035
:00000001FF
