:0A0000008316FF2390008312EF2BFC
:1006A400813442342434183424344234813463236E
:1006B400013083168500831205108510051105127B
:1006C400080083129F171F13F3309F0583161F081A
:1006D4008F3940389F001F08F03901389F0083127A
:1006E4001F1408008312A901AA0127082A02031D66
:1006F4007D2B2608290203180800F930A800000001
:10070400A80B812B852B000001308312A907031845
:10071400AA0A0030AA07772B59238312AC010630AA
:100724002C0203188F2B2C082D3E84008313000801
:10073400AA23CB2383122108A701A7072008A60117
:10074400A607742301308312AB002B08AC07912B4E
:100754008312A100A301083023020318C82B210827
:100764000139A0002008A200A208031DBB2B05111B
:10077400BC2B0515851485100310A10C0130A000B5
:100784002008A30708302302031CB12B0516051209
:1007940008008312A401A5019F149F18CF2B1E08E3
:1007A400A200A3012208A300A2012208A400230896
:1007B400A50083161E0883122407A2002508031827
:1007C400250AA3002208A4002308A5002508A101E6
:1007D400A1072408A001A00708005223AD00532359
:1007E400AE005423AF005523B0005623B100572365
:0A07F400B2005823B30083018E2BDE
:02400E00B431CB
:00000001FF
