:04000000A7EF7FF0F7
:10FF4E000001CCEF7FF0000E056E000E046E12D095
:10FF5E00000E076E000E066E07BE06D0075008E1B3
:10FF6E003F0E065CD8B004D000F0064A072AF4D73C
:10FF7E00044A052A0150045C0550800A036E0250A3
:10FF8E00800A0358D8B01200E3D7D3508F0B100954
:10FF9E00D36E0F0EC16E000E936E000E8A6E010EA2
:10FFAE00096E000E086E080E086401D00DD009C04F
:10FFBE008AFF09500924096E000E026E020E016EB0
:10FFCE00AAEC7FF0082AEFD7800E096E000E086E9D
:10FFDE00080E086401D0E3D709C08AFFD890093013
:10FFEE00096E000E026E020E016EAAEC7FF0082A58
:02FFFE00EFD73B
:020000040020DA
:08000000FFFFFFFFFFFFFFFF00
:020000040030CA
:0E000000FFC8181EFF8381FF0FC00FE00F40E6
:00000001FF
