:0400000060EF08F0B5
:10100000003F065B4F666D7D077F6F0045EC08F083
:10101000000E036E090E036401D019D00350010DB8
:10102000010EF324F66E100EF420F76E0800F5CFD3
:101030008CFF0F0E026E350E016E510EE82EFED79C
:10104000012EFCD7022EFAD700F0032AE3D7080EB0
:10105000036E0350D8B4DCD70350010D010EF32406
:10106000F66E100EF420F76E0800F5CF8CFF0F0E11
:10107000026E350E016E510EE82EFED7012EFCD702
:10108000022EFAD700F00306E4D7D3508F0B600985
:10109000D36E9B8CC168000E806E000E816E000EB8
:1010A000826E000E836E000E926E000E936E000E26
:1010B000946E000E956E8A808A828A848A861200D7
:0E10C000000EF86E100EF76E000106EF08F03D
:020000040020DA
:08000000FFFFFFFFFFFFFFFF00
:020000040030CA
:0E000000FFC8181EFF8381FF0FC00FE00F40E6
:00000001FF
