:040000007AEF3AF069
:1074F400206A1F6A1E6A1D6A1C6A1B6A000EF86EE7
:1075040000014AEF3CF0E8CF08F008B002D08194C3
:1075140001D0818481920750C9EC3AF08182120033
:10752400E8CF0AF00A508009076E000E85EC3AF0A5
:1075340009504009076E000E85EC3AF01200000E67
:107544000F010F01386F000E0F010F01396F000E8C
:107554000F010F013A6FD3508F0B6009D36E000EE9
:10756400936E1200000E056E000E046E09D0030E19
:10757400036E980EE82EFED7032EFCD7044A052A84
:107584000150045C02500558D8B01200F0D7E8CF7F
:1075940002F0016E000E036E0150070E036401D069
:1075A4001200819802BE02D0819601D08186818822
:1075B40002500224026E032A070E0364F2D712005B
:1075C40011C009F0105092EC3AF00AD00EC0F6FF48
:1075D4000FC0F7FF0800F55008EC3CF00E4A0F2AE4
:1075E4000EC0F6FF0FC0F7FF0800F5500009D8B42D
:1075F4001200ECD701500302F3CF05F0F4CF06F0EC
:1076040001500402F3CFF4FFF36AF3500526F4505B
:10761400062202500302F3CFF4FFF36AF350052667
:10762400F450062205C001F006C002F01200000E5C
:107634000D6E000E0C6E0D50800A7F0FF80ED8B43C
:107644000C5CD8B00AD00B6E000E076E0B50010E06
:1076540085EC3AF00C4A0D2AEED70B6E000E096E3B
:107664000B50000E92EC3AF0120004500310D8B400
:107674001AD0056E010E066E055004D0D89003365C
:107684000436062A04AEFAD70350015C04500258AB
:10769400D8A004D00350015E0450025AD89004329A
:1076A4000332062EF1D701C001F002C002F012002D
:1076B4000EC009F00D5092EC3AF0000E126E000E5E
:1076C400116E1250800A7F0FF80ED8B4115CD8B036
:1076D40012000BC00FF00CC010F011500F26125006
:1076E40010220FC0F6FF10C0F7FF0800F5CF07F017
:1076F400010E85EC3AF0114A122AE3D713C019F0AF
:1077040012C018F01550800AF36E800EF35C000E60
:10771400D8B4145CD8B00CD012C0D9FF13C0DAFFAF
:107724002D0EDF6E124A132A146C151ED8B0152ABA
:1077340013C00AF012C009F014C00BF015C00CF00D
:1077440016C00DF017C00EF08FEC3CF01200000EC6
:10775400076E000E066E04500310D8B41ED0056EDA
:10776400010E086E055004D0D89003360436082A5A
:1077740004AEFAD7D890063607360350015C04509D
:107784000258D8A005D00350015E0450025A068066
:10779400D89004320332082EEDD706C001F007C09A
:1077A40002F012009390939293949396939881820B
:1077B400819000F08180096E210E076E0950000E41
:1077C40085EC3AF0096EB00E076E0950000E85EC98
:1077D4003AF0096E040E076E0950000E85EC3AF07B
:1077E400096E140E076E0950000E85EC3AF0096E0E
:1077F400200E076E0950000E85EC3AF0096E0C0E4F
:10780400076E0950000E85EC3AF01200E8CF0BF039
:10781400096E000E076E0950010E85EC3AF0000E59
:107824000D6E000E0C6E0D50800A800F050ED8B43C
:107834000C5CD8B025D0E00E0B24016E026AFF0E5A
:107844000222000E046E050E036EFCEC3AF0E50E07
:10785400096E7B0E0A6E0150092602500A220C5052
:1078640009260D500A2209C0F6FF0AC0F7FF0800D6
:10787400F5CF07F0010E85EC3AF00C4A0D2AD3D768
:10788400096E000E076E0950010E85EC3AF01200E5
:10789400A1EC3AF0D4EC3BF019EC3BF0000E026E94
:1078A4000A0E016EB4EC3AF0000E1C6E000E1B6E54
:1078B400E1EC3CF01B4A1C2AD30E1B5C040E1C5842
:1078C400D8A014D01A6E300E1D6E1A501A6E300ED7
:1078D4001E6E1A501A6E300E1F6E1A501A6E300E2B
:1078E400206E1A50000E1C6E000E1B6E000E136EDE
:1078F4001D0E126E1BC014F01CC015F0000E176E86
:107904000A0E166E80EC3BF056EC3DF0000E026E53
:10791400640E016EB4EC3AF0CDD70BC00FF00CC07E
:1079240010F00FC001F010C002F00DC003F00EC043
:1079340004F0A9EC3BF001C00FF002C010F0094ABA
:107944000A2A10500F10D8A4ECD709C0D9FF0AC0D6
:10795400DAFF000EDF6E0906D8A00A060BC001F09C
:107964000CC002F00DC003F00EC004F037EC3BF085
:107974000150116E0BC001F00CC002F00DC003F0F9
:107984000EC004F0A9EC3BF001C00BF002C00CF0F7
:10799400090E116402D0070E1126300E112609C0FB
:1079A400D9FF0AC0DAFF11C0DFFF0906D8A00A0612
:1079B4000C500B10D8A4D2D7094A0A2A12007D0E03
:1079C4000C6EC50E0B6E136E000E0D6E1350146EFE
:1079D400000E0E6E14505AEC3BF00B0E026EB80EF5
:1079E400016EB4EC3AF019EC3BF07F0E0F6ECA0E48
:1079F4000E6E136E000E106E1350146E000E116E88
:107A04001450E2EC3AF07F0E0F6EE30E0E6E136E1E
:107A1400000E106E1350146E090E116E1450E2EC29
:107A24003AF07F0E0F6EEE0E0E6E136E000E106E99
:107A34001350146E120E116E1450E2EC3AF07F0ED5
:107A44000F6ED70E0E6E136E000E106E1350146E62
:107A54001B0E116E1450E2EC3AF07F0E0F6EBD0E49
:107A64000E6E136E000E106E1350146E240E116EF3
:107A74001450E2EC3AF00B0E026EB80E016EB4EC48
:107A84003AF0136E300E1D6E1350136E300E1E6ED0
:107A94001350136E300E1F6E1350136E300E206E83
:107AA400135019EC3BF0120019EC3BF07F0E0F6EF3
:107AB400F70E0E6E126E000E106E1250136E000E44
:107AC400116E1350E2EC3AF00A0E1B5C000E1C58C7
:107AD400D8B00BD0126E0A0E096E1250000E92EC42
:107AE4003AF01D5008EC3CF012000A0E1B5C000E2C
:107AF4001C58D8A01BD0640E1B5C000E1C58D8B0B8
:107B040015D0126E0A0E096E1250000E92EC3AF065
:107B14001D5008EC3CF0126E0A0E096E12500A0E4B
:107B240092EC3AF01E5008EC3CF01200640E1B5C20
:107B3400000E1C58D8A025D0E80E1B5C030E1C5860
:107B4400D8B01FD0126E0A0E096E1250000E92ECBD
:107B54003AF01D5008EC3CF0126E0A0E096E1250F9
:107B64000A0E92EC3AF01E5008EC3CF0126E0A0E2B
:107B7400096E1250140E92EC3AF01F5008EC3CF0CF
:107B84001200E80E1B5C030E1C58D8A01200126EE3
:107B94000A0E096E1250000E92EC3AF01D5008ECD9
:107BA4003CF0126E0A0E096E12500A0E92EC3AF074
:107BB4001E5008EC3CF0126E0A0E096E1250140EA0
:107BC40092EC3AF01F5008EC3CF0126E0A0E096E6B
:107BD40012501E0E92EC3AF0205008EC3CF01200C9
:107BE40000000000000000005F0000000700070024
:107BF400147F147F14242A7F2A1223130864623604
:107C0400495522500005030000001C224100004198
:107C1400221C0014083E081408083E0808005030CE
:107C2400000008080808080060600000201008042C
:107C3400023E5149453E00427F400042615149465F
:107C44002141454B311814127F1027454545393CD5
:107C54004A494930017109050336494949360649FB
:107C640049291E003636000000563600000814224A
:107C7400410014141414140041221408020151097F
:107C840006324979413E7E1111117E7F49494936B8
:107C94003E414141227F4141221C7F494949417F64
:107CA400090909013E4149497A7F0808087F0041D2
:107CB4007F41002040413F017F081422417F404022
:107CC40040407F020C027F7F0408107F3E41414107
:107CD4003E7F090909063E4151215E7F0919294663
:107CE400464949493101017F01013F4040403F1F5E
:107CF4002040201F3F4038403F63140814630708A6
:107D04007008076151494543007F4141000204085E
:107D140010200041417F0004020102044040404021
:107D240040000102040020545454787F48444438ED
:107D34003844444420384444487F38545454180840
:107D44007E0901020C5252523E7F0804047800441A
:107D54007D40002040443D007F1028440000417FC6
:107D640040007C041804787C0804047838444444B3
:107D7400387C14141408081414187C7C08040408AF
:107D84004854545420043F4440203C4040207C1C30
:107D94002040201C3C4030403C44281028440C50D7
:107DA40050503C4464544C44000836410000007F69
:107DB40000000041360800100808100878464146C3
:107DC40078FF01FDFDFD0D0D0D0D0D0D0D0D0D0DBE
:107DD400CDCDCDCDCDCDCDCDCDCDCDCDFDFDFDFD0F
:107DE4003D3D1D1D0D0D0D2DEDEDCDDD1D7DFDFD6F
:107DF400FDFDFDFDFDFDFD0D0D0D0D0D0D0D0D0D1F
:107E04000D0D0DEDEDEDEDCDDDDD9D3D7DFDFDFDBE
:107E1400FDFDFD01FFFF00FFFFFF0000000000006B
:107E240000000000E7E7E7E7E7E7E7E7E7E7E7E77A
:107E3400FFFFFFF08000000000000000010F0F674B
:107E4400F0FCFFFFFF7F7F7F7FFFFF00000000004B
:107E540000000000000000FFFFFFFFFFFFFFFFFF27
:107E6400FE00071FFFFFFF00FFFF00FFFFFF0000F2
:107E74000000000000000000FFFFFFFFFFFFFFFF06
:107E8400FFFFFFFFFF0F07C1F8FEF8E0C00000008E
:107E9400000000000007071178FEFFFFFFFFFF004E
:107EA40000000000000000000000001F3F7F7F7FF3
:107EB4003FBF9FCFC7F0F8FEFFFFFF00FFFF00FFAB
:107EC400FFFFE0E0E0E0E0E0E0E0E0E0E7E7E7E754
:107ED400E7E7E7E7E7E7E7E7FFFEF0F1E7EFEFEFD4
:107EE400EFE7F6F0F0E0E0E0E0E0E0E0E0E0E1EF32
:107EF400EFFFFFE0E0E0E0E0E0E0E0E0E0E0E0FF12
:107F0400FFFEF8F9F1F7E7E7EFEFFFFFFFFFFF00F0
:107F1400FFFF00FFFFFFFFFF83FF83FFFF03C73F58
:107F2400C703FFFF0FEFEFFF07FBFBFB77FFFF0329
:107F3400EFEF0FFFFF0FFFFF0FFFFF0FEFEF0FFF3D
:107F4400FF0FEF4FFFFF03BF4FFFFF0FFFFF0FFFB9
:107F5400FF0FAF8FFFFF0FAF8FFFFF83FF83FFFF85
:107F6400FFFFFF00FFFF80BFBFBFBFBFBEBFBEBFDD
:107F7400BFBEBFBEBFBEBFBFBEBFBFBFBFBEBEBE14
:107F8400BFBFBFBEBFBFBEBFBFBEBEBEBEBFBFBE04
:107F9400BFBFBEBFBFBEBEBEBFBFBEBFBEBEBFBEF5
:107FA400BEBEBEBFBFBEBEBEBFBFBEBEBEBFBFBEE7
:107FB400BFBEBFBFBFBFBF80FF4D504C4142582022
:107FC4002620584338004C69627265726961204CFE
:107FD4004344004D724368756E636B756565004E6E
:107FE4006F6B6961203531313000436F6E746164A9
:0C7FF4006F7200436F6E74656F3A0000FE
:020000040020DA
:08000000FFFFFFFFFFFFFFFF00
:020000040030CA
:0E000000FF28193CFFB581FF0FC00FE00F4035
:00000001FF
