:04000000F2EF3DF0EE
:107BE400066A056A046A036A026A016A000EF86E8C
:107BF400000112EF3EF0000E0F01386F000E0F016E
:107C0400396F000E0F013A6FD388D38AD38C000EDC
:107C1400936E000E946E000E816E000E826E120042
:107C2400FDEC3DF0000E086E000E076E08505EE19C
:107C34001A0E075CD8B05AD0000E026E000E016E08
:107C4400025051E1640E015CD8B04DD0000E046EB8
:107C5400010E036E07C009F008C00AF0D890093677
:107C64000A36D89009360A36D89009360A3609C039
:107C740005F00AC006F01DD0D8900534F66E06341F
:107C8400F76EBF0EF6267D0EF7220800F5CF81FFB2
:107C940003C082FF060E096E300EE82EFED7092EB1
:107CA400FCD700D0D8900334036E0434046E054A24
:107CB400062A07C009F008C00AF0D89009360A3627
:107CC400D89009360A36D89009360A36090E09269C
:107CD400000E0A220950055C0A500658D8A0CCD7D9
:107CE400014A022AADD7074A082AA0D7000E086E17
:107CF400000E076E085096E10A0E075CD8B092D7C2
:107D0400000E026E000E016E025051E1640E015C21
:107D1400D8B04DD0000E046E010E036E07C009F0FA
:107D240008C00AF0D89009360A36D89009360A36BF
:107D3400D89009360A3609C005F00AC006F01DD0ED
:107D4400D8900534F66E0634F76E5F0EF6267F0E75
:107D5400F7220800F5CF81FF03C082FF060E096EEB
:107D6400300EE82EFED7092EFCD700D0D89003346D
:107D7400036E0434046E054A062A07C009F008C0DD
:107D84000AF0D89009360A36D89009360A36D890BF
:107D940009360A36090E0926000E0A220950055C26
:107DA4000A500658D8A0CCD7014A022AADD7074AB0
:107DB400082A085001E1A0D735D70000003F007F12
:107DC40000E400E4007F003F0000000000FF00FF2B
:107DD4000099009900FF006600000000003C007E4E
:107DE40000C3008100C300420000000000FF00FF48
:107DF40000C300C3007E003C0000000000FF00FF41
:107E040000990099009900810000000000FF00FF24
:107E140000C800C800C800C000000000007E00FFC9
:107E24000081008500C700460000000000FF00FF3D
:107E34000018001800FF00FF0000000000C300C38A
:107E440000FF00FF00C300C300000000000600C6DE
:107E540000C300FF00FE00C00000000000FF00FFA0
:107E64000038006C00C600830000000000FF00FF23
:107E74000003000300030003000000FF00FF006094
:107E84000030006000FF00FF000000FF00FF006002
:107E94000030001800FF00FF00000000007E00FF1B
:107EA40000C300C300FF007E0000000000FF00FFCD
:107EB4000088008800F8007000000000007C00FECC
:107EC4000082008600FF007D0000000000FF00FF2C
:107ED40000D800DC00F7006300000000007200FB23
:107EE4000099009900DF004E0000000000C000C0AF
:107EF40000FF00FF00C000C00000000000FE00FF03
:107F04000003000300FF00FE0000000000FC00FE70
:107F14000003000300FE00FC000000FF00FF000659
:107F2400000C000600FF00FF000000E700F7003C23
:107F34000018003C00EF00E70000000000F000F82B
:107F4400000F000F00F800F00000000000C700CF91
:107F540000DB00DB00F300E300000000007E00FF14
:107F640000CB00D300FF007E000000000001006190
:107F740000FF00FF0001000100000000006600CFC8
:107F840000CB00D300F3006200000000004200C3F5
:107F94000099009900FF006E00000000001C002CF6
:107FA400004C00FF00FF000C00000000007200F312
:107FB40000910091009F000E00000000007E00FF71
:107FC40000910091009F004E0000000000C000C01E
:107FD400008F009F00F000E000000000006E00FF32
:107FE4000091009100FF006E00000000007000F896
:0C7FF4000088008800FF007F00000000F3
:020000040020DA
:08000000FFFFFFFFFFFFFFFF00
:020000040030CA
:0E000000FF28193CFFB581FF0FC00FE00F4035
:00000001FF
