:0400000007EF00F016
:0A00080019825BED08F0A3EF09F088
:10100000003F065B4F666D7D077F6F001850010D36
:10101000010EF324F66E100EF420F76E0800F5CFE3
:101020008CFF8A80060E016E300EE82EFED7012E50
:10103000FCD700D08A901750010D010EF324F66EF4
:10104000100EF420F76E0800F5CF8CFF8A82060E92
:10105000016E300EE82EFED7012EFCD700D08A920A
:101060001650010D010EF324F66E100EF420F76EEB
:101070000800F5CF8CFF8A84060E016E300EE82E34
:10108000FED7012EFCD700D08A941550010D010E19
:10109000F324F66E100EF420F76E0800F5CF8CFFE7
:1010A0008A86060E016E300EE82EFED7012EFCD782
:1010B00000D08A9612000600FACF02F0FBCF03F0B0
:1010C000E9CF04F0EACF05F0E1CF06F0E2CF07F078
:1010D000D9CF08F0DACF09F0F3CF0AF0F4CF0BF054
:1010E000F6CF0CF0F7CF0DF0F8CF0EF0F5CF0FF0F4
:1010F000F2A413D0114A122A125004E1140E115C0A
:10110000D8A006D006EC08F0000E126E000E116E8C
:10111000F80ED76E300ED66EF2940FC0F5FF0EC0EB
:10112000F8FF0DC0F7FF0CC0F6FF0BC0F4FF0AC0BC
:10113000F3FF09C0DAFF08C0D9FF07C0E2FF06C00D
:10114000E1FF05C0EAFF04C0E9FF03C0FBFF02C0E6
:10115000FAFF1992110039D0182A1850D8A402D0D9
:10116000000E186E090E18641200000E186E1200A0
:10117000172A1750D8A402D0000E176E090E176454
:101180001200000E176E1200162A1650D8A402D0B4
:10119000000E166E090E16641200000E166E120076
:1011A000152A1550D8A402D0000E156E090E15642C
:1011B0001200000E156E1200000E186E000E176E53
:1011C000000E166E000E156E12001450000AD8B4F0
:1011D000C3D7010AD8B4CCD7030AD8B4D5D7010AEB
:1011E000D8B4DED7E9D739D018061850D8A402D021
:1011F000000E186E090E18641200000E186E120010
:1012000017061750D8A402D0000E176E090E1764E7
:101210001200000E176E120016061650D8A402D047
:10122000000E166E090E16641200000E166E1200E5
:1012300015061550D8A402D0000E156E090E1564BF
:101240001200000E156E1200000E186E000E176EC2
:10125000000E166E000E156E12001450000AD8B45F
:10126000C3D7010AD8B4CCD7030AD8B4D5D7010A5A
:10127000D8B4DED7E9D7D3508F0B6009D36E9B8CDF
:10128000C168000E806E000E816E000E826E000E30
:10129000836E000E846E000E926E000E936E000E32
:1012A000946E000E956E070E966E000E186E000E70
:1012B000176E000E166E000E156E000E146E000EE8
:1012C000126E000E116E91EC09F0120084A00AD08B
:1012D000140E136405D0ABEC08F0000E136E120070
:1012E000132A120084A20AD0140E136405D0F3EC62
:1012F00008F0000E136E1200132A120084A40ED000
:10130000320E136409D0142A030E146402D0000EA6
:10131000146E000E136E1200132A1200000E136ECC
:101320001200D58ED59CD59AD598D596D590D592C4
:10133000D594F80ED76E300ED66EF294F28AF18400
:10134000D08EF28E120000EE11F0080EEE6AE80662
:10135000FDE119901992000EF86E0001B0EF09F04E
:101360003BEC09F066EC09F01A0E106EF80EE82E50
:0A137000FED7102EFCD700D0F5D7F1
:020000040020DA
:08000000FFFFFFFFFFFFFFFF00
:020000040030CA
:0E000000FFC8181EFF8381FF0FC00FE00F40E6
:00000001FF
