:02000000FD2BD6
:10071C0083128F0190010D081002031D972B0C08FA
:10072C000F0203180800C7308E009C2B8E0B9B2BDE
:10073C009F2BA02B013083128F070318900A0030D7
:10074C009007912B83168601831286010614861658
:10075C0028308C0023308D008E23831206109201DA
:10076C000A3012020318D32B060C01399100013008
:10077C009106910D06081106FD39110686002C30E4
:10078C008C0001308D008E230130831291001108F2
:10079C0092070A301202031CBA2B86128615061514
:1007AC0028308C0023308D008E2383128611920109
:1007BC000A3012020318FB2B060E0139910001308E
:1007CC009106910E06081106EF39110686002C30A1
:1007DC008C0001308D008E230130831291001108A2
:1007EC0092070A301202031CE22B0611AC2B920169
:0407FC008301A82BA2
:02400E00F1FFC0
:00000001FF
